{
  "_format": "hh-sol-artifact-1",
  "contractName": "Timelock",
  "sourceName": "contracts/Timelock.sol",
  "abi": [
    {
      "inputs": [
        {
          "internalType": "address",
          "name": "_tokenAddress",
          "type": "address"
        }
      ],
      "stateMutability": "nonpayable",
      "type": "constructor"
    },
    {
      "anonymous": false,
      "inputs": [
        {
          "indexed": true,
          "internalType": "address",
          "name": "_from",
          "type": "address"
        },
        {
          "indexed": false,
          "internalType": "uint256",
          "name": "_amount",
          "type": "uint256"
        },
        {
          "indexed": false,
          "internalType": "uint256",
          "name": "_endTime",
          "type": "uint256"
        }
      ],
      "name": "AutoDepositSet",
      "type": "event"
    },
    {
      "anonymous": false,
      "inputs": [
        {
          "indexed": true,
          "internalType": "address",
          "name": "_from",
          "type": "address"
        },
        {
          "indexed": false,
          "internalType": "uint256",
          "name": "_amount",
          "type": "uint256"
        },
        {
          "indexed": false,
          "internalType": "uint256",
          "name": "_endTime",
          "type": "uint256"
        }
      ],
      "name": "AutoWithdrawSet",
      "type": "event"
    },
    {
      "anonymous": false,
      "inputs": [
        {
          "indexed": true,
          "internalType": "address",
          "name": "_from",
          "type": "address"
        },
        {
          "indexed": false,
          "internalType": "uint256",
          "name": "_amount",
          "type": "uint256"
        },
        {
          "indexed": false,
          "internalType": "bool",
          "name": "_isManual",
          "type": "bool"
        }
      ],
      "name": "Deposit",
      "type": "event"
    },
    {
      "anonymous": false,
      "inputs": [
        {
          "indexed": true,
          "internalType": "address",
          "name": "_address",
          "type": "address"
        },
        {
          "indexed": false,
          "internalType": "uint256",
          "name": "_totalBalance",
          "type": "uint256"
        }
      ],
      "name": "TotalBalanceUpdated",
      "type": "event"
    },
    {
      "anonymous": false,
      "inputs": [
        {
          "indexed": true,
          "internalType": "address",
          "name": "_to",
          "type": "address"
        },
        {
          "indexed": false,
          "internalType": "uint256",
          "name": "_amount",
          "type": "uint256"
        },
        {
          "indexed": false,
          "internalType": "bool",
          "name": "_isManual",
          "type": "bool"
        }
      ],
      "name": "Withdrawal",
      "type": "event"
    },
    {
      "inputs": [
        {
          "internalType": "address",
          "name": "",
          "type": "address"
        }
      ],
      "name": "autoBalances",
      "outputs": [
        {
          "internalType": "uint256",
          "name": "",
          "type": "uint256"
        }
      ],
      "stateMutability": "view",
      "type": "function"
    },
    {
      "inputs": [
        {
          "internalType": "address",
          "name": "",
          "type": "address"
        },
        {
          "internalType": "uint256",
          "name": "",
          "type": "uint256"
        }
      ],
      "name": "autoDepositActions",
      "outputs": [
        {
          "internalType": "uint256",
          "name": "amount",
          "type": "uint256"
        },
        {
          "internalType": "uint256",
          "name": "endTime",
          "type": "uint256"
        }
      ],
      "stateMutability": "view",
      "type": "function"
    },
    {
      "inputs": [
        {
          "internalType": "address",
          "name": "",
          "type": "address"
        },
        {
          "internalType": "uint256",
          "name": "",
          "type": "uint256"
        }
      ],
      "name": "autoWithdrawActions",
      "outputs": [
        {
          "internalType": "uint256",
          "name": "amount",
          "type": "uint256"
        },
        {
          "internalType": "uint256",
          "name": "endTime",
          "type": "uint256"
        }
      ],
      "stateMutability": "view",
      "type": "function"
    },
    {
      "inputs": [],
      "name": "checkAutoActions",
      "outputs": [],
      "stateMutability": "nonpayable",
      "type": "function"
    },
    {
      "inputs": [
        {
          "internalType": "uint256",
          "name": "_amount",
          "type": "uint256"
        }
      ],
      "name": "deposit",
      "outputs": [],
      "stateMutability": "nonpayable",
      "type": "function"
    },
    {
      "inputs": [
        {
          "internalType": "address",
          "name": "_address",
          "type": "address"
        }
      ],
      "name": "getAutoBalance",
      "outputs": [
        {
          "internalType": "uint256",
          "name": "",
          "type": "uint256"
        }
      ],
      "stateMutability": "view",
      "type": "function"
    },
    {
      "inputs": [
        {
          "internalType": "address",
          "name": "_address",
          "type": "address"
        }
      ],
      "name": "getAutoDepositActions",
      "outputs": [
        {
          "components": [
            {
              "internalType": "uint256",
              "name": "amount",
              "type": "uint256"
            },
            {
              "internalType": "uint256",
              "name": "endTime",
              "type": "uint256"
            }
          ],
          "internalType": "struct Timelock.AutoAction[]",
          "name": "",
          "type": "tuple[]"
        }
      ],
      "stateMutability": "view",
      "type": "function"
    },
    {
      "inputs": [
        {
          "internalType": "address",
          "name": "_address",
          "type": "address"
        }
      ],
      "name": "getAutoWithdrawActions",
      "outputs": [
        {
          "components": [
            {
              "internalType": "uint256",
              "name": "amount",
              "type": "uint256"
            },
            {
              "internalType": "uint256",
              "name": "endTime",
              "type": "uint256"
            }
          ],
          "internalType": "struct Timelock.AutoAction[]",
          "name": "",
          "type": "tuple[]"
        }
      ],
      "stateMutability": "view",
      "type": "function"
    },
    {
      "inputs": [
        {
          "internalType": "address",
          "name": "_address",
          "type": "address"
        }
      ],
      "name": "getTotalBalance",
      "outputs": [
        {
          "internalType": "uint256",
          "name": "",
          "type": "uint256"
        }
      ],
      "stateMutability": "view",
      "type": "function"
    },
    {
      "inputs": [
        {
          "internalType": "address",
          "name": "",
          "type": "address"
        }
      ],
      "name": "manualBalances",
      "outputs": [
        {
          "internalType": "uint256",
          "name": "",
          "type": "uint256"
        }
      ],
      "stateMutability": "view",
      "type": "function"
    },
    {
      "inputs": [],
      "name": "owner",
      "outputs": [
        {
          "internalType": "address",
          "name": "",
          "type": "address"
        }
      ],
      "stateMutability": "view",
      "type": "function"
    },
    {
      "inputs": [
        {
          "internalType": "uint256",
          "name": "_amount",
          "type": "uint256"
        },
        {
          "internalType": "uint256",
          "name": "_seconds",
          "type": "uint256"
        }
      ],
      "name": "setAutoDeposit",
      "outputs": [],
      "stateMutability": "nonpayable",
      "type": "function"
    },
    {
      "inputs": [
        {
          "internalType": "uint256",
          "name": "_amount",
          "type": "uint256"
        },
        {
          "internalType": "uint256",
          "name": "_seconds",
          "type": "uint256"
        }
      ],
      "name": "setAutoWithdraw",
      "outputs": [],
      "stateMutability": "nonpayable",
      "type": "function"
    },
    {
      "inputs": [],
      "name": "tokenAddress",
      "outputs": [
        {
          "internalType": "address",
          "name": "",
          "type": "address"
        }
      ],
      "stateMutability": "view",
      "type": "function"
    },
    {
      "inputs": [
        {
          "internalType": "uint256",
          "name": "_amount",
          "type": "uint256"
        }
      ],
      "name": "withdraw",
      "outputs": [],
      "stateMutability": "nonpayable",
      "type": "function"
    },
    {
      "stateMutability": "payable",
      "type": "receive"
    }
  ],
  "bytecode": "0x60806040523480156200001157600080fd5b5060405162001e0538038062001e05833981810160405281019062000037919062000129565b336000806101000a81548173ffffffffffffffffffffffffffffffffffffffff021916908373ffffffffffffffffffffffffffffffffffffffff16021790555080600460006101000a81548173ffffffffffffffffffffffffffffffffffffffff021916908373ffffffffffffffffffffffffffffffffffffffff160217905550506200015b565b600080fd5b600073ffffffffffffffffffffffffffffffffffffffff82169050919050565b6000620000f182620000c4565b9050919050565b6200010381620000e4565b81146200010f57600080fd5b50565b6000815190506200012381620000f8565b92915050565b600060208284031215620001425762000141620000bf565b5b6000620001528482850162000112565b91505092915050565b611c9a806200016b6000396000f3fe6080604052600436106100ec5760003560e01c806389acb9721161008a578063b6b55f2511610059578063b6b55f2514610386578063c981883d146103af578063d3d38193146103c6578063ed5f8b91146104035761012c565b806389acb972146102b65780638da5cb5b146102f35780639d76ea581461031e578063b409cd18146103495761012c565b806357b4c01b116100c657806357b4c01b146101c05780635a5e7726146101fe57806371612a711461023b57806385396006146102795761012c565b8063142feb1a146101315780632e1a7d4d1461015a57806357098a7d146101835761012c565b3661012c576040517f08c379a0000000000000000000000000000000000000000000000000000000008152600401610123906115c7565b60405180910390fd5b600080fd5b34801561013d57600080fd5b5061015860048036038101906101539190611622565b61042c565b005b34801561016657600080fd5b50610181600480360381019061017c9190611662565b610524565b005b34801561018f57600080fd5b506101aa60048036038101906101a591906116ed565b61078b565b6040516101b79190611807565b60405180910390f35b3480156101cc57600080fd5b506101e760048036038101906101e29190611829565b61083d565b6040516101f5929190611878565b60405180910390f35b34801561020a57600080fd5b50610225600480360381019061022091906116ed565b61087e565b60405161023291906118a1565b60405180910390f35b34801561024757600080fd5b50610262600480360381019061025d9190611829565b6108c7565b604051610270929190611878565b60405180910390f35b34801561028557600080fd5b506102a0600480360381019061029b91906116ed565b610908565b6040516102ad91906118a1565b60405180910390f35b3480156102c257600080fd5b506102dd60048036038101906102d891906116ed565b610920565b6040516102ea91906118a1565b60405180910390f35b3480156102ff57600080fd5b50610308610938565b60405161031591906118cb565b60405180910390f35b34801561032a57600080fd5b5061033361095c565b60405161034091906118cb565b60405180910390f35b34801561035557600080fd5b50610370600480360381019061036b91906116ed565b610982565b60405161037d9190611807565b60405180910390f35b34801561039257600080fd5b506103ad60048036038101906103a89190611662565b610a34565b005b3480156103bb57600080fd5b506103c4610c1b565b005b3480156103d257600080fd5b506103ed60048036038101906103e891906116ed565b610c37565b6040516103fa91906118a1565b60405180910390f35b34801561040f57600080fd5b5061042a60048036038101906104259190611622565b610c93565b005b6000814261043a9190611915565b9050600360003373ffffffffffffffffffffffffffffffffffffffff1673ffffffffffffffffffffffffffffffffffffffff1681526020019081526020016000206040518060400160405280858152602001838152509080600181540180825580915050600190039060005260206000209060020201600090919091909150600082015181600001556020820151816001015550503373ffffffffffffffffffffffffffffffffffffffff167fc4f5b0522c723a859ad5abc614085fc54755bc7d75374516ad6da8636cdb069b8483604051610517929190611878565b60405180910390a2505050565b600160003373ffffffffffffffffffffffffffffffffffffffff1673ffffffffffffffffffffffffffffffffffffffff168152602001908152602001600020548111156105a6576040517f08c379a000000000000000000000000000000000000000000000000000000000815260040161059d90611995565b60405180910390fd5b6000600460009054906101000a900473ffffffffffffffffffffffffffffffffffffffff1690508073ffffffffffffffffffffffffffffffffffffffff1663a9059cbb33846040518363ffffffff1660e01b81526004016106089291906119b5565b6020604051808303816000875af1158015610627573d6000803e3d6000fd5b505050506040513d601f19601f8201168201806040525081019061064b9190611a16565b61068a576040517f08c379a000000000000000000000000000000000000000000000000000000000815260040161068190611a8f565b60405180910390fd5b81600160003373ffffffffffffffffffffffffffffffffffffffff1673ffffffffffffffffffffffffffffffffffffffff16815260200190815260200160002060008282546106d99190611aaf565b925050819055503373ffffffffffffffffffffffffffffffffffffffff167f06e0c61e7e9f4912ee1f3ce060b59207b98f9a232d711462af3166aeeed1250a836001604051610729929190611af2565b60405180910390a23373ffffffffffffffffffffffffffffffffffffffff167fe933044e76d88c49127d0dcb87587df5320a3a8cd3b83f99a4549dff27b5854a61077233610c37565b60405161077f91906118a1565b60405180910390a25050565b6060600260008373ffffffffffffffffffffffffffffffffffffffff1673ffffffffffffffffffffffffffffffffffffffff168152602001908152602001600020805480602002602001604051908101604052809291908181526020016000905b82821015610832578382906000526020600020906002020160405180604001604052908160008201548152602001600182015481525050815260200190600101906107ec565b505050509050919050565b6003602052816000526040600020818154811061085957600080fd5b9060005260206000209060020201600091509150508060000154908060010154905082565b6000600560008373ffffffffffffffffffffffffffffffffffffffff1673ffffffffffffffffffffffffffffffffffffffff168152602001908152602001600020549050919050565b600260205281600052604060002081815481106108e357600080fd5b9060005260206000209060020201600091509150508060000154908060010154905082565b60016020528060005260406000206000915090505481565b60056020528060005260406000206000915090505481565b60008054906101000a900473ffffffffffffffffffffffffffffffffffffffff1681565b600460009054906101000a900473ffffffffffffffffffffffffffffffffffffffff1681565b6060600360008373ffffffffffffffffffffffffffffffffffffffff1673ffffffffffffffffffffffffffffffffffffffff168152602001908152602001600020805480602002602001604051908101604052809291908181526020016000905b82821015610a29578382906000526020600020906002020160405180604001604052908160008201548152602001600182015481525050815260200190600101906109e3565b505050509050919050565b6000600460009054906101000a900473ffffffffffffffffffffffffffffffffffffffff1690508073ffffffffffffffffffffffffffffffffffffffff166323b872dd3330856040518463ffffffff1660e01b8152600401610a9893929190611b1b565b6020604051808303816000875af1158015610ab7573d6000803e3d6000fd5b505050506040513d601f19601f82011682018060405250810190610adb9190611a16565b610b1a576040517f08c379a0000000000000000000000000000000000000000000000000000000008152600401610b1190611a8f565b60405180910390fd5b81600160003373ffffffffffffffffffffffffffffffffffffffff1673ffffffffffffffffffffffffffffffffffffffff1681526020019081526020016000206000828254610b699190611915565b925050819055503373ffffffffffffffffffffffffffffffffffffffff167f693c1828300d1cab0919b948d714897f817e305af51c026ad14233b6a8939adb836000604051610bb9929190611af2565b60405180910390a23373ffffffffffffffffffffffffffffffffffffffff167fe933044e76d88c49127d0dcb87587df5320a3a8cd3b83f99a4549dff27b5854a610c0233610c37565b604051610c0f91906118a1565b60405180910390a25050565b6000429050610c2a3382610d8b565b610c3433826111a1565b50565b6000610c428261087e565b600160008473ffffffffffffffffffffffffffffffffffffffff1673ffffffffffffffffffffffffffffffffffffffff16815260200190815260200160002054610c8c9190611915565b9050919050565b60008142610ca19190611915565b9050600260003373ffffffffffffffffffffffffffffffffffffffff1673ffffffffffffffffffffffffffffffffffffffff1681526020019081526020016000206040518060400160405280858152602001838152509080600181540180825580915050600190039060005260206000209060020201600090919091909150600082015181600001556020820151816001015550503373ffffffffffffffffffffffffffffffffffffffff167fc0836f5eb478977c1ac2fc3cc7f1d1e6c60041a774c6bed73adb8d5f8a026f0d8483604051610d7e929190611878565b60405180910390a2505050565b6000600360008473ffffffffffffffffffffffffffffffffffffffff1673ffffffffffffffffffffffffffffffffffffffff168152602001908152602001600020905060005b818054905081101561119b57818181548110610df057610def611b52565b5b9060005260206000209060020201600101548310611188576000610e138561087e565b9050828281548110610e2857610e27611b52565b5b906000526020600020906002020160000154811015610e7c576040517f08c379a0000000000000000000000000000000000000000000000000000000008152600401610e7390611bcd565b60405180910390fd5b828281548110610e8f57610e8e611b52565b5b906000526020600020906002020160000154600560008773ffffffffffffffffffffffffffffffffffffffff1673ffffffffffffffffffffffffffffffffffffffff1681526020019081526020016000206000828254610eef9190611aaf565b925050819055506000600460009054906101000a900473ffffffffffffffffffffffffffffffffffffffff1690508073ffffffffffffffffffffffffffffffffffffffff1663a9059cbb87868681548110610f4d57610f4c611b52565b5b9060005260206000209060020201600001546040518363ffffffff1660e01b8152600401610f7c9291906119b5565b6020604051808303816000875af1158015610f9b573d6000803e3d6000fd5b505050506040513d601f19601f82011682018060405250810190610fbf9190611a16565b610ffe576040517f08c379a0000000000000000000000000000000000000000000000000000000008152600401610ff590611a8f565b60405180910390fd5b8573ffffffffffffffffffffffffffffffffffffffff167f06e0c61e7e9f4912ee1f3ce060b59207b98f9a232d711462af3166aeeed1250a85858154811061104957611048611b52565b5b906000526020600020906002020160000154600060405161106b929190611af2565b60405180910390a28573ffffffffffffffffffffffffffffffffffffffff167fe933044e76d88c49127d0dcb87587df5320a3a8cd3b83f99a4549dff27b5854a6110b488610c37565b6040516110c191906118a1565b60405180910390a2600184805490506110da9190611aaf565b83101561114b5783600185805490506110f39190611aaf565b8154811061110457611103611b52565b5b906000526020600020906002020184848154811061112557611124611b52565b5b906000526020600020906002020160008201548160000155600182015481600101559050505b8380548061115c5761115b611bed565b5b600190038181906000526020600020906002020160008082016000905560018201600090555050905550505b808061119390611c1c565b915050610dd1565b50505050565b6000600260008473ffffffffffffffffffffffffffffffffffffffff1673ffffffffffffffffffffffffffffffffffffffff168152602001908152602001600020905060005b818054905081101561153e5781818154811061120657611205611b52565b5b906000526020600020906002020160010154831061152b576000600460009054906101000a900473ffffffffffffffffffffffffffffffffffffffff1690508073ffffffffffffffffffffffffffffffffffffffff166323b872dd863086868154811061127657611275611b52565b5b9060005260206000209060020201600001546040518463ffffffff1660e01b81526004016112a693929190611b1b565b6020604051808303816000875af11580156112c5573d6000803e3d6000fd5b505050506040513d601f19601f820116820180604052508101906112e99190611a16565b611328576040517f08c379a000000000000000000000000000000000000000000000000000000000815260040161131f90611a8f565b60405180910390fd5b82828154811061133b5761133a611b52565b5b906000526020600020906002020160000154600560008773ffffffffffffffffffffffffffffffffffffffff1673ffffffffffffffffffffffffffffffffffffffff168152602001908152602001600020600082825461139b9190611915565b925050819055508473ffffffffffffffffffffffffffffffffffffffff167f693c1828300d1cab0919b948d714897f817e305af51c026ad14233b6a8939adb8484815481106113ed576113ec611b52565b5b906000526020600020906002020160000154600060405161140f929190611af2565b60405180910390a28473ffffffffffffffffffffffffffffffffffffffff167fe933044e76d88c49127d0dcb87587df5320a3a8cd3b83f99a4549dff27b5854a61145887610c37565b60405161146591906118a1565b60405180910390a26001838054905061147e9190611aaf565b8210156114ef5782600184805490506114979190611aaf565b815481106114a8576114a7611b52565b5b90600052602060002090600202018383815481106114c9576114c8611b52565b5b906000526020600020906002020160008201548160000155600182015481600101559050505b82805480611500576114ff611bed565b5b6001900381819060005260206000209060020201600080820160009055600182016000905550509055505b808061153690611c1c565b9150506111e7565b50505050565b600082825260208201905092915050565b7f436f6e747261637420646f6573206e6f7420616363657074204574686572206460008201527f69726563746c7900000000000000000000000000000000000000000000000000602082015250565b60006115b1602783611544565b91506115bc82611555565b604082019050919050565b600060208201905081810360008301526115e0816115a4565b9050919050565b600080fd5b6000819050919050565b6115ff816115ec565b811461160a57600080fd5b50565b60008135905061161c816115f6565b92915050565b60008060408385031215611639576116386115e7565b5b60006116478582860161160d565b92505060206116588582860161160d565b9150509250929050565b600060208284031215611678576116776115e7565b5b60006116868482850161160d565b91505092915050565b600073ffffffffffffffffffffffffffffffffffffffff82169050919050565b60006116ba8261168f565b9050919050565b6116ca816116af565b81146116d557600080fd5b50565b6000813590506116e7816116c1565b92915050565b600060208284031215611703576117026115e7565b5b6000611711848285016116d8565b91505092915050565b600081519050919050565b600082825260208201905092915050565b6000819050602082019050919050565b61174f816115ec565b82525050565b60408201600082015161176b6000850182611746565b50602082015161177e6020850182611746565b50505050565b60006117908383611755565b60408301905092915050565b6000602082019050919050565b60006117b48261171a565b6117be8185611725565b93506117c983611736565b8060005b838110156117fa5781516117e18882611784565b97506117ec8361179c565b9250506001810190506117cd565b5085935050505092915050565b6000602082019050818103600083015261182181846117a9565b905092915050565b600080604083850312156118405761183f6115e7565b5b600061184e858286016116d8565b925050602061185f8582860161160d565b9150509250929050565b611872816115ec565b82525050565b600060408201905061188d6000830185611869565b61189a6020830184611869565b9392505050565b60006020820190506118b66000830184611869565b92915050565b6118c5816116af565b82525050565b60006020820190506118e060008301846118bc565b92915050565b7f4e487b7100000000000000000000000000000000000000000000000000000000600052601160045260246000fd5b6000611920826115ec565b915061192b836115ec565b9250828201905080821115611943576119426118e6565b5b92915050565b7f496e73756666696369656e74206d616e75616c2062616c616e63650000000000600082015250565b600061197f601b83611544565b915061198a82611949565b602082019050919050565b600060208201905081810360008301526119ae81611972565b9050919050565b60006040820190506119ca60008301856118bc565b6119d76020830184611869565b9392505050565b60008115159050919050565b6119f3816119de565b81146119fe57600080fd5b50565b600081519050611a10816119ea565b92915050565b600060208284031215611a2c57611a2b6115e7565b5b6000611a3a84828501611a01565b91505092915050565b7f5472616e73666572206661696c65640000000000000000000000000000000000600082015250565b6000611a79600f83611544565b9150611a8482611a43565b602082019050919050565b60006020820190508181036000830152611aa881611a6c565b9050919050565b6000611aba826115ec565b9150611ac5836115ec565b9250828203905081811115611add57611adc6118e6565b5b92915050565b611aec816119de565b82525050565b6000604082019050611b076000830185611869565b611b146020830184611ae3565b9392505050565b6000606082019050611b3060008301866118bc565b611b3d60208301856118bc565b611b4a6040830184611869565b949350505050565b7f4e487b7100000000000000000000000000000000000000000000000000000000600052603260045260246000fd5b7f496e73756666696369656e74206175746f2062616c616e636500000000000000600082015250565b6000611bb7601983611544565b9150611bc282611b81565b602082019050919050565b60006020820190508181036000830152611be681611baa565b9050919050565b7f4e487b7100000000000000000000000000000000000000000000000000000000600052603160045260246000fd5b6000611c27826115ec565b91507fffffffffffffffffffffffffffffffffffffffffffffffffffffffffffffffff8203611c5957611c586118e6565b5b60018201905091905056fea2646970667358221220ce2afe49a650261031946b1d12cc995e0468b8017acd05aee30d61ea287f407564736f6c63430008140033",
  "linkReferences": {},
  "deployedLinkReferences": {}
}